:020000040800F2
:10000000400C00209D010008A5010008A701000880
:10001000A9010008AB010008AD01000800000000C4
:10002000000000000000000000000000AF01000818
:10003000B101000800000000B3010008D13C000835
:10004000B7010008B7010008B7010008B7010008B0
:10005000B7010008B7010008D1050008B701000882
:10006000B7010008B7010008B7010008B701000890
:10007000B7010008B7010008B7010008B701000880
:10008000B7010008B701000845020008B7010008E1
:10009000B7010008B7010008B7010008B701000860
:1000A000B7010008B7010008B7010008B701000850
:1000B000B7010008B7010008B7010008B701000840
:1000C000B7010008B7010008B7010008B701000830
:1000D000B7010008B7010008B7010008B701000820
:1000E000B7010008B7010008B7010008B701000810
:1000F000B7010008B7010008B7010008B701000800
:10010000000000000000000000000000B70100082F
:10011000B7010008B7010008DD3D0008E93D00080F
:10012000B7010008B7010008B7010008B7010008CF
:10013000B70100083D0300080000000000000000B7
:10014000B7010008B7010008B7010008000000006F
:10015000000000000000000000000000000000009F
:100160000000000000000000B7010008B70100080F
:10017000B7010008000000000000000000000000BF
:1001800000000000B7010008DFF80CD000F048F8CC
:1001900000480047D1460008400C00200648804730
:1001A00006480047FEE7FEE7FEE7FEE7FEE7FEE75C
:1001B000FEE7FEE7FEE7FEE7753D0008890100085F
:1001C0000649074A0868504343F239021044086060
:1001D000400870470149086070470000780000201F
:1001E0006D4EC641421C10F8011B0029FBD1801A3C
:1001F000704730B50B46014600202022012409E05B
:1002000021FA02F59D4205D303FA02F5491B04FACF
:1002100002F52844151EA2F10102F1DC30BD0000F8
:10022000064C074D06E0E06840F0010394E8070043
:1002300098471034AC42F6D3FFF7AAFF204B0008D2
:10024000404B000810B53B4800F08AFC394800F0EC
:1002500083FC3949C0B2642210FB02F03F22B0FB9C
:10026000F2F0C0B248700A2801D801205CE0A0F189
:100270000B02042A01D8022056E0A0F11002042A41
:1002800001D8032050E0A0F11502042A01D804206F
:100290004AE0A0F11A02042A01D8052044E0A0F1A6
:1002A0001F02042A01D806203EE0A0F12402042AFD
:1002B00001D8072038E0A0F12902042A01D808203B
:1002C00032E0A0F12E02042A01D809202CE0A0F18E
:1002D0003302042A01D80A2026E0A0F13802042AB9
:1002E00001D80B2020E0A0F13D02042A01D80C2007
:1002F0001AE0A0F14202042A01D80D2014E0A0F176
:100300004702042A01D80E200EE0A0F14C02042A74
:1003100001D80F2008E0A0F15102042A01D81020D2
:1003200002E0552801D91120C870BDE810400148ED
:1003300000F018BF9C0000200400002010B50A48FF
:1003400000F00EFC084800F007FC0849C0B2642227
:1003500010FB02F03F22B0FBF2F00870BDE8104045
:10036000014800F0FFBE0000F00000200400002063
:1003700070B504460068816801F00301012926D1A7
:100380000168C90723D0816801F00D01012910D14E
:10039000816841F00201816021680320086001F05A
:1003A00087F805460FE000BF01F082F8401B0228E5
:1003B00009D9606C40F010006064A06C40F001004E
:1003C000A064012070BD20688068C007ECD10020C7
:1003D00070BD000070B504460068816801F003013B
:1003E000012902D10168C90720D18168104A114250
:1003F0000DD1816841F00101816001F059F8054695
:100400000FE000BF01F054F8401B022809D9606CCE
:1004100040F010006064A06C40F00100A064012076
:1004200070BD20680068C043C007EBD1002070BDDC
:100430003F0000801A4900200A68D0630A681064EF
:1004400001F140021368186458630B68586313681D
:100450009863096888631168C86302F140010A68FB
:1004600050630A6890630A68D063096808640C499D
:10047000C031096808640B490A6890630A68D06350
:1004800009680864074940310A685063096888634D
:100490000449642080310968486304F071B80000A1
:1004A000F4010020740300202DE9F0410021032015
:1004B00004F0C6FA414C207904F0E0FA0021102043
:1004C00004F0BEFA607904F0D9FA0121022004F0A8
:1004D000B7FA207904F0D2FA0121112004F0B0FA21
:1004E000607904F0CBFA0221012004F0A9FA207906
:1004F00004F0C4FA0221122004F0A2FA607904F098
:10050000BDFA0321002004F09BFA207904F0B6FA2A
:100510000321132004F094FA607904F0AFFA012566
:100520000321284604F08CFA5F2004F0A7FA6D1C22
:10053000EDB2132DF4D3224D0321287804F080FA74
:10054000A07804F09BFA28780321401CC0B204F084
:1005500077FAE07804F092FA0121002004F070FAB2
:10056000184819A102781548283003F099FE13485D
:10057000283004F0C3F9154E002506F10A0715E0EE
:1005800012480A38405D80B1715D41B1491EC9B25F
:10059000785D04F055FA202004F070FA715D785D02
:1005A00004F04EFAFC2004F069FA6D1CE0798542F3
:1005B000E6DBBDE8F04104F001B8000008000020CF
:1005C00007000020060000202564000086000020AF
:1005D00010B5012000F096FE03488178012901D171
:1005E0000221817010BD00000400002070B52B4C6A
:1005F0002B4E4FF48055012816D002281BD003281B
:100600002FD0042848D101228021204600F04AFF43
:1006100001224021204600F045FF012220212046F2
:1006200000F040FF002216E000228021204600F06A
:1006300039FF012205E001228021204600F032FF2F
:1006400000224021204600F02DFF012220212046DB
:1006500000F028FF01221021204600F023FF002295
:1006600014E001228021204600F01CFF01224021DD
:10067000204600F017FF00222021204600F012FF44
:1006800001221021204600F00DFF012229463046AC
:10069000BDE8704000F006BF70BD0000000C0048CF
:1006A000000800487047704770477047F0B5002356
:1006B00002684FF0A04C3D4C95B01F46624501D1F9
:1006C00000940DE0A24202D1CDF800C008E0384D00
:1006D000384EAA4201D1009602E0B24214D10095F0
:1006E00090F84050012D12D0012580F840509568B7
:1006F0006D0752D4009DAD686D074ED4624501D0A0
:10070000A24206D12C4A05E0012015B0F0BD02201E
:10071000FBE72A4A0D6840F61F741DB39568466BC7
:1007200025F4604545EA46354E68354395600568D1
:10073000AE6806F00306012E02D12D68ED0731D117
:10074000009DAD6805F00305012D03D1009D2D68C6
:10075000ED0727D10D6889680D439168A1430D43CA
:1007600095601FE0916821F46041916001688D6897
:1007700005F00305012D02D10968C90712D10099BE
:10078000896801F00301012903D100990968C907AB
:1007900008D19168A143916004E0416C41F02001CF
:1007A0004164012380F840701846AEE70001005014
:1007B00000040050000500500003005000070050E6
:1007C000F0B595B00024009490F840202546012A09
:1007D00019D0012780F8407003689A6852077CD4CA
:1007E0004A681F26052A11D2D3F830C002EB420214
:1007F000520096402CEA060C0E6896404CEA060C15
:10080000C3F830C035E0022015B0F0BD0A2A0FD27F
:10081000D3F834C0521F02EB4202520096402CEA39
:10082000060C0E6896404CEA060CC3F834C020E073
:100830000F2A0FD2D3F838C00A3A02EB4202520014
:1008400096402CEA060C0E6896404CEA060CC3F85B
:1008500038C00EE0D3F83CC00F3A02EB420252001F
:1008600096402CEA060C0E6896404CEA060CC3F83B
:100870003CC00268936813F00C0F4FF0070374D16B
:10088000D1F800E0BEF10A0F10D39669AEF10A0E5E
:100890000EEB4E0C03FA0CFE26EA0E06D1F808E029
:1008A0000EFA0CFE46EA0E0696610FE0D2F814C06E
:1008B0000EEB4E0603FA06FE2CEA0E0CD1F808E009
:1008C0000EFA06FE4CEA0E0CC2F814C002684E691D
:1008D000D2F80CC0CCF3C10C00E0FDE04FEA4C0CA8
:1008E00006FA0CF6D1F810E0DFF848C2BEF1010FAD
:1008F00042D0BEF1020F4DD0BEF1030F58D0BEF171
:10090000040F63D0166E91F800C006F0F846B6EBFF
:100910008C6F03D1166E26F0004616660268566E7E
:1009200091F800C006F0F846B6EB8C6F03D1566E16
:1009300026F0004656660268966E91F800C006F0F2
:10094000F846B6EB8C6F03D1966E26F0004696669D
:100950000268D66E91F800C006F0F846B6EB8C6FD0
:1009600003D1D66E26F00046D6660268966806F079
:100970000306012E3AD136E0D2F860E00EEA0C0E02
:1009800091F800C046EA8C664EEA060E4EF000462C
:100990001666EAE7D2F864E00EEA0C0E91F800C0A1
:1009A00046EA8C664EEA060E4EF000465666DCE7D6
:1009B000D2F868E00EEA0C0E91F800C046EA8C66A8
:1009C0004EEA060E4EF000469666CEE7D2F86CE090
:1009D0000EEA0C0E91F800C046EA8C664EEA060E4E
:1009E0004EF00046C0E71668F6077AD1CE68012EB1
:1009F00006D052F8B03F0E78B740BB43136021E0F9
:100A000052F8B06F91F800C007FA0CF73E43166039
:100A10000A680A2A0BD30668B769093A02EB420250
:100A200093409F438B6893401F43B7610AE0076878
:100A30007E69521C02EB420293409E438B689340B6
:100A40001E437E6103684FF0A0473B4EBB4201D07E
:100A5000B34201D1394A00E0394A0968102904D06B
:100A6000112907D012290AD03BE0D2F808C04FEA7A
:100A70000C2C08E0D2F808C04FEACC1C03E0D2F8F6
:100A800008C04FEA4C2CBCF1000F2ADBBB420DD052
:100A9000B34201D100970CE02A4EDFF8ACC0B3425C
:100AA00002D1CDF800C004E0634501D1009600E01A
:100AB00000959E6806F00306012E02D11E68F60717
:100AC0000AD1009E8EB1B66806F00306012E0CD145
:100AD000009E3668F60708D0416C41F02001416461
:100AE000012480F8405020468EE6102908D01129B4
:100AF0001AD01229F5D1916841F480019160F0E794
:100B0000BB42EED1916841F4000191600F49104A57
:100B10000968B1FBF2F101EB8101490000E0491ED7
:100B200000910029FBD1DCE7BB42DAD1916841F0AA
:100B30008071E3E700F0FF830001005000030050E4
:100B40000007005000040050000500507400002011
:100B500040420F00704770470068006C704700000B
:100B60002DE9F041044600680168C34FC34DC44EEF
:100B700049074FF0A04802D54168490705D40168EC
:100B8000090761D5416809075ED5616CC90603D4C0
:100B9000616C41F4007161644146884201D0B04209
:100BA00002D1D1F8082300E03A6812F01F0F1BD0E1
:100BB000884201D0B04202D1D1F8082300E03A685F
:100BC00002F01F02052A0FD0884201D0B04202D1A4
:100BD000D1F8082300E03A6802F01F02092A03D086
:100BE000884201D0A84201D1C16803E0B04200D0E0
:100BF0002946C968C26812F4406F1FD189041DD408
:100C0000016809071AD5816849070FD4416821F0A6
:100C10000C014160606C20F480706064606CC00402
:100C20000CD4606C40F00100606407E0606C40F040
:100C300010006064A06C40F00100A0642046FFF743
:100C400089FF21680C20086020680168890602D5A8
:100C50004168890605D4016849066ED54168490690
:100C60006BD5616C41F4005161644246904201D001
:100C7000B04202D1D2F8081300E0396811F01F0F1A
:100C80001CD0904201D0B04202D1D2F8081300E04B
:100C9000396801F01F01052910D04146884201D072
:100CA000B04202D1D1F8083300E03B6803F01F03E3
:100CB000092B03D0884201D0A84201D1C16803E0CA
:100CC000B04200D02946C968C36C13F0C00F07D0EA
:100CD0008B0154D4C36813F4406F50D189044ED4AF
:100CE000016849064BD51146884201D0B04202D175
:100CF000D1F8082300E03A6812F01F0F1BD0884299
:100D000001D0B04202D1D1F8082300E03A6802F0E5
:100D10001F02062A0FD0884201D0B04202D1D1F87A
:100D2000082300E03A6802F01F02072A03D0884235
:100D300001D0A84202D1C16804E026E0B04200D050
:100D40002946C96889021AD4816809070FD4416805
:100D500021F060014160606C20F480506064606C40
:100D6000C0050CD4606C40F00100606407E0606C6A
:100D700040F010006064A06C40F00100A0642046C8
:100D8000FFF790FC21686020086020680168090670
:100D90000CD54068000609D5606C40F48030606472
:100DA000204600F095F921688020086020680168DD
:100DB000C9050DD54068C0050AD5606C40F4003007
:100DC00060642046FFF770FC21684FF48070086073
:100DD0002068016889050DD5406880050AD5606CDA
:100DE00040F4802060642046FFF75FFC21684FF4E8
:100DF0000070086020680168C90622D54168C906EC
:100E00001FD5A16B01290ED0404501D0B04201D1C0
:100E10001C4901E0184908398A68D20628D0886838
:100E200000F4404050B1606C40F480606064A06C9D
:100E300040F00200A0642046FFF78DFE21681020DC
:100E4000086020680168490510D5416849050DD53D
:100E5000616C41F480416164A16C41F00801A164BE
:100E60004FF4806101602046FFF71DFCBDE8F08172
:100E7000C068C007D6E70000080700500004005013
:100E80000001005000030050F0B54FF0000695B08F
:100E9000040037463546009605D0606CC00648D43D
:100EA000606C18B133E0012015B0F0BDA564256574
:100EB000E56484F84050204600F00CF92068806812
:100EC000C00024D42046FFF753FA0646606CC006E3
:100ED0001DD4E6B9606C20F4885040F002006064D4
:100EE0002068816821F0405181602068816841F06C
:100EF000805181606D486E490068B0FBF1F000EBF5
:100F00008000400000E0401E00900028FBD12068D7
:100F10008168C90002D5806880000AD5606C20F025
:100F2000020040F010006064A06C40F00100A0647A
:100F30000126606CC00675D4002E73D120688168CC
:100F400049076FD4616C21F4807141F00201616442
:100F50004FF0A04E574B704501D0984201D1564AF0
:100F600000E0564ADFF858C15649704501D1009358
:100F70000EE0984202D1CDF800E009E0884202D1AB
:100F8000CDF800C004E0604501D1009100E000957B
:100F9000836803F00303012B02D10068C00710D15E
:100FA000009840B1806800F00300012803D1009848
:100FB0000068C00705D19068636820F4403018438A
:100FC0009060D4E902201043A26B012A02D04FF4B2
:100FD000805300E00023E26943EA42331843636A26
:100FE0003843012B0AD1F2B1626C22F0020242F0C6
:100FF00020026264A26C42F00102A264E26A012A49
:1010000021D023688B4201D0634518D14FF430774B
:101010004FF4E071BA4213D04FF480739A420AD170
:1010200039460DE038E0228D274B03EB4242024364
:1010300042F48030E2E78A4201D1194600E01146CD
:101040000143206B084321688A6812F00C0F0AD113
:10105000CA6844F202039A43CA60A169626B8903B9
:1010600041EA420108432268D168184B1940014304
:10107000D160206901282068016B21F00F0102D1A5
:10108000226A521E11430163A564606C20F00200C5
:1010900040F00100606406E0606C20F0020040F067
:1010A0001000606401263046FEE600007400002057
:1010B00040420F00000100500003005000070050A4
:1010C00000050050000400500000FEFF07C0F0FFC4
:1010D0007047000010B5036800211E48032286B047
:1010E000B3F1A04F1ED01C4CA34219D1436943F069
:1010F00000534361406900F0005005904FF40040F8
:101100000090CDE901216946144800F007F900225A
:1011100003213D2000F01AFB5FF03D0000F00AFBC8
:1011200006B010BD436943F080534361406900F04D
:101130008050059001200090CDE9012169460848C2
:1011400000F0ECF800221146122000F0FFFA122005
:10115000E4E70000001002400005005000040048D1
:10116000000800482DE9F041044600688068400707
:1011700070D494F8400001280CD0012084F840007D
:101180002046FFF727F903004FF0000605D084F84A
:1011900040609EE00220BDE8F081606C40F6016195
:1011A000884340F48070606420684FF0A0414A4A50
:1011B0004A4D884201D0904202D1D1F8087300E034
:1011C0002F6817F01F0F464F03D0884201D0B84256
:1011D0000BD1D4F844C02CF4801CC4F844C0D0F81F
:1011E0000CC05FEA8C1C14D41BE0D4F844C04CF44F
:1011F000801CC4F844C0904202D1D1F80CC005E074
:10120000DFF8DCC00CF10C0CDCF800C01CF0007F37
:1012100007D0D4F844C02CF4005C4CF4805CC4F8D3
:1012200044C0D4F844C05FEACC4C06D5D4F848C0DA
:101230002CF0060CC4F848C000E0A66484F84060B6
:101240001C260660606908282068466803D046F0BE
:101250000C0607E03CE026F004064660206846687D
:1012600046F008064660A06B012804D12068466855
:1012700026F0100646602068884201D0904202D1D4
:10128000D1F8084300E02C6814F01F0F1BD08842EF
:1012900001D0904202D1D1F8084300E02C6804F05C
:1012A0001F04052C0FD0884201D0904202D1D1F802
:1012B000082300E02A6802F01F02092A03D08842AE
:1012C00001D0B84205D1816841F00401816000E09D
:1012D000022318465FE70000000100500807005095
:1012E0000004005031B500F0E3F8009C0546601C96
:1012F00000D0641C00F0DCF8401BA042FAD338BDDB
:1013000070470000044910B50A68024202D0086024
:10131000FFF7F6FF10BD0000140401402DE9F84F5F
:10132000DFF864B100234FF0010C4FF0030A4FF0D7
:101330000F090BF1040EA0E00CFA03F6324072D054
:101340004C68022C01D0122C0ED1DC0800EB840872
:10135000D8F820405D07EF0E09FA07F5AC430D6998
:10136000BD402543C8F8205007685D0091F804800F
:101370000AFA05F408F00308A74308FA05F848EA52
:101380000708C0F800804F68012F05D0022F03D056
:10139000112F01D0122F11D18768D1F80C80A743EB
:1013A00008FA05F848EA0708C0F808804768B74314
:1013B0000E79C6F300169E403E434660C668A643BB
:1013C0008C68AC403443C4604C68E40054D52F4C66
:1013D000A56945F00105A561A46923F0030504F0A2
:1013E000010400942A4C2E19B4689D072F0F09FAA6
:1013F00007F5AC43B0F1904F04D0264DA84203D17D
:10140000012512E0002510E0234DA84201D102255C
:101410000BE0224DA84201D1032506E0204DA84251
:1014200002D1042501E027E00525BD402543B56034
:10143000DBF800405D464E689443F60300D5144344
:101440002C60DEF8004075464E689443B60300D524
:1014500014432C600C4D08352C684E689443F602FA
:1014600000D514432C60084D0C352C684E6894430D
:10147000B60200D514432C605B1C0A6832FA03F4F0
:101480007FF45AAFBDE8F88F00040140001002401D
:10149000000001400004004800080048000C00481B
:1014A000001000480AB181617047816270470000F6
:1014B00001480068704700000000002090F84120BB
:1014C000202A24D190F84020012A20D0012280F83F
:1014D0004020242280F841200268136823F0010391
:1014E00013600268136823F4805313600268136862
:1014F0000B43136001680A6842F001020A60202170
:1015000080F84110002180F8401008467047022002
:10151000704790F84120202A22D190F84020012ADB
:101520001ED0012280F84020242280F84120026849
:10153000136823F0010313600268136823F47063D7
:1015400043EA0121116001680A6842F001020A6061
:10155000202180F84110002180F840100846704793
:101560000220704770B5040004D094F841000025B3
:1015700010B106E0012070BD84F84050204600F014
:101580004DF8242084F841002068016821F0010111
:1015900001606068216820F07060086120688168DF
:1015A00021F400418160E0680128A06807D040F480
:1015B000044021688860E068022803D006E040F417
:1015C0000040F6E721684FF40060486020684168F9
:1015D000114A114341602068C16821F40041C16093
:1015E000D4E904010843A16940EA01202168C860E8
:1015F000D4E907010843216808602068016841F0C8
:10160000010101606564202084F84100256384F8AD
:101610004250002070BD00000080000200B500684C
:101620000E4987B0884216D1C02000901220019048
:10163000012002900320039004200490694608488A
:10164000FFF76CFE0748C16941F40011C161C06930
:1016500000F40010059007B000BD000000540040E9
:10166000000400480010024002480168491C016063
:101670007047000000000020074810B5016841F0E5
:1016800010010160032000F081F8002000F006F84E
:1016900000F018F8002010BD0020024010B50446EC
:1016A00007484FF47A710068B0FBF1F000F065FE76
:1016B00000222146501E00F049F8002010BD000015
:1016C000740000201A4808B5816941F00101816168
:1016D000806900F001000090052000F057F800221A
:1016E00011466FF00B0000F031F8002211466FF048
:1016F0000A0000F02BF8002211466FF0090000F0FC
:1017000025F800221146501F00F020F80022114653
:10171000101F00F01BF800221146901E00F016F872
:101720000022BDE808401146501E00F00FB800002E
:101730000010024000F01F0201219140400980008A
:1017400000F1E020C0F8001170470000F0B40E4B2B
:101750001B680C46C3F30223C3F10705042D00D90F
:101760000425191D072901D2002300E0DB1E0126F4
:1017700006FA05F1491E214099409E40761E16400A
:101780003143F0BC02F0D8B90CED00E0064900F09E
:10179000070208684FF6FF03184040EA0220034A98
:1017A00010430860704700000CED00E00000FA05EF
:1017B00070B504004FF0000604D094F871030025C2
:1017C00010B106E0012070BD84F87053204600F08F
:1017D00043F8032084F8710301220CE0C6EBC60035
:1017E00004EB800080F8292000F8286F761CC57073
:1017F000C560056145616068B042EFD8002010E027
:10180000C0EBC00104EB810181F8CD5181F8CC011E
:1018100081F8CF51C1F8D851C1F8DC51401CC1F852
:10182000E05161688142EBD82068A0F84020206830
:10183000A0F840502068A0F844502068A0F850500C
:1018400021684FF43F40A1F8400084F8245084F808
:101850007123002070BD000000B500680F4987B0FB
:10186000884218D14FF4C05000900220019000200F
:101870000290032003900E20049069464FF09040A0
:10188000FFF74CFD0648C16941F40001C161C06920
:1018900000F40000059007B000BD0000005C0040AF
:1018A000001002402DE9F84F04460068804DC00347
:1018B0006FD5E8690026C00008D4E86940F0805080
:1018C000E861E869012600F08050009079480168DD
:1018D000C90512D40168804641F480710160FFF7A8
:1018E000E7FD074605E000BFFFF7E2FDC01B6428E7
:1018F00035D8D8F80000C005F6D5286A10F4407035
:1019000053D0A18801F4407181424ED0286A4FF42F
:10191000803191FAA1F2B2FA82F29700664A4FF052
:101920000108174420F44070C7F8008491FAA1F12F
:10193000B1FA81F102EB81010023C1F80034286281
:10194000C00732D0FFF7B4FD074641F2883A4FF0A6
:10195000020907E0FFF7ACFDC11B514502D9032086
:10196000BDE8F88F99FAA9F1B1FA81F141F040018F
:101970004846B8EB511F01D129680CE090FAA0F15C
:10198000B1FA81F141F04001B0EB511F02D1296A57
:1019900001E015E0696A99FAA9F0B0FA80F000F068
:1019A0001F0008FA00F21142D4D0286A616820F4BE
:1019B0004070084328621EB1E86920F08050E86159
:1019C0002078C00705D0286BA16820F003000843E9
:1019D00028632078800705D5286BE16820F4403023
:1019E000084328632078400705D5286B216920F437
:1019F0004020084328632078800605D5286BE169DC
:101A000020F01000084328632068800305D568682B
:101A1000A16B20F48000084368602078400605D55B
:101A2000286B216A20F020000843286320780007F3
:101A300005D5286B616920F440100843286320789D
:101A4000C00605D5286BA16920F44000084328632F
:101A50002088800505D56868E16A20F40000084305
:101A600068602078000605D5E86A616A20F4F8709D
:101A70000843E8622088C00505D5E86AA16A20F419
:101A800078500843E8622088C00405D5286B216B94
:101A900020F48070084328632088800405D5286BD3
:101AA000616B20F4007008432863002058E70000B1
:101AB0000010024000700040000042422DE9F04753
:101AC000DFF8708105460E46D8F8000000F00700E8
:101AD000B0420CD2D8F8001021F007013143C8F809
:101AE0000010D8F8000000F00700B04277D1287845
:101AF000514C800705D56068A96820F0F0000843C4
:101B000060602878C00759D06968012001290DD08C
:101B1000022929D05FF0020393FAA3F2B2FA82F20B
:101B200042F02002520904D0226803E04FF400334F
:101B3000F2E7626A93FAA3F3B3FA83F303F01F03A5
:101B4000984002424BD0606820F003000843606078
:101B5000FFF7AEFC6968074641F2883001290DD0D5
:101B60000229814617D025E04FF00073D4E700BF6B
:101B7000FFF79EFCC11B494501D918E0814660680A
:101B8000C0F381000128F3D118E000BFFFF790FCFB
:101B9000C11B49450BD86068C0F381000228F5D10C
:101BA0000CE000BFFFF784FCC11B494502D90320AC
:101BB000BDE8F087606810F00C0FF3D1D8F8001082
:101BC000404601F00701B1420BD9016821F007013D
:101BD00031430160006800F00700B04201D00120ED
:101BE000E6E72878400705D56068E96820F4E060FA
:101BF000084360602878000706D56068296920F4EA
:101C0000605040EAC100606000F022F86168F02294
:101C100092FAA2F201F0F001B2FA82F2D140074A40
:101C2000515CC840064908600020FFF737FD0020DE
:101C3000BEE700000020024000100240104B0008E8
:101C40007400002001480068704700007400002004
:101C5000144B10B55A68144802F00C0104291DD029
:101C600008291BD14FF4701494FAA4F402F47011F3
:101C7000B4FA84F4E1400D4CDB6A615C0F2494FA01
:101C8000A4F403F00F03B4FA84F4E340074C1034D7
:101C9000D203E35C03D5B0FBF3F0484310BD044826
:101CA000484310BD0010024000127A00F04A0008BC
:101CB00000093D002DE9F84F05460078F74EC007B2
:101CC0004FF0010425D070686704C0F3810001283B
:101CD00007D07068C0F3810002281BD17068C00370
:101CE00018D597FAA7F0B0FA80F040F0200040092C
:101CF00001D0306800E0706A97FAA7F1B1FA81F17B
:101D000001F01F0104FA01F1084264D0686800285C
:101D10007DD060E06868B0F5803F0BD010B1B0F5C1
:101D2000A02F17D0306820F480303060306820F465
:101D3000802002E0306840F480303060F06AA968AA
:101D400020F00F000843F062686828B3FFF7B0FB8B
:101D500080460BE0306840F480203060EAE700BF46
:101D6000FFF7A6FBA0EB0800642871D897FAA7F04C
:101D7000B0FA80F040F02000400901D0306800E067
:101D8000706A97FAA7F1B1FA81F101F01F0104FA24
:101D900001F10842E4D01EE0FFF78AFB804605E02F
:101DA000FFF786FBA0EB08006428DED897FAA7F0BF
:101DB000B0FA80F040F02000400901D0306800E027
:101DC000706A97FAA7F1B1FA81F101F01F0104FAE4
:101DD00001F10842E4D12878DFF8C48280074FF08F
:101DE000000A4FF0020732D570684FF0F80B10F080
:101DF0000C0F07D07068C0F38100022829D17068E9
:101E0000C00326D497FAA7F0B0FA80F000E08BE088
:101E100040F02000400901D0306800E0706A97FA75
:101E2000A7F1B1FA81F101F01F0104FA01F10842B2
:101E300002D02869012877D130689BFAABF2696932
:101E4000B2FA82F220F0F8009140084330605AE084
:101E500064E1286988B394FAA4F0B0FA80F048F8F5
:101E60002040FFF725FB814606E000BFFFF720FB7F
:101E7000A0EB0900022898D897FAA7F0B0FA80F0F2
:101E800040F02000400901D0306800E0706A97FA05
:101E9000A7F1B1FA81F101F01F0104FA01F1084242
:101EA000E4D030689BFAABF220F0F8016869B2FA2E
:101EB00082F290400143316025E0FFE794FAA4F1FB
:101EC000B1FA81F148F821A0FFF7F2FA814605E066
:101ED000FFF7EEFAA0EB09000228CCD897FAA7F09A
:101EE000B0FA80F040F02000400901D0306800E0F6
:101EF000706A97FAA7F1B1FA81F101F01F0104FAB3
:101F000001F10842E4D1287800076CD5A869A8B38C
:101F100094FAA4F0B0FA80F008EB8000C0F8804496
:101F2000FFF7C6FA814607E08AE100BFFFF7C0FA73
:101F3000A0EB090002289ED897FAA7F0B0FA80F02B
:101F400040F06000B4EB501F01D130680BE097FA0D
:101F5000A7F0B0FA80F040F06000B7EB501F01D15D
:101F6000306A00E0706A97FAA7F1B1FA81F101F0E6
:101F70001F0104FA01F21042D8D034E0FFE794FACE
:101F8000A4F1B1FA81F108EB8101C1F880A4FFF757
:101F90008FFA814606E000BFFFF78AFAA0EB09003E
:101FA00002289AD897FAA7F0B0FA80F040F06000C3
:101FB000B4EB501F01D130680BE097FAA7F0B0FAEC
:101FC00080F040F06000B7EB501F01D1306A00E0B4
:101FD000706A97FAA7F1B1FA81F101F01F0104FAD2
:101FE00001F21042D8D12878400774D5F0694FF03B
:101FF0000009C00009D4F06940F08050F061F06938
:102000004FF0010900F08050009026480168C90592
:1020100012D4016841F480710160FFF749FA8346E8
:1020200006E000BFFFF744FAA0EB0B00642875D868
:102030001C480068C005F5D5E86801280AD008B139
:10204000052811D0306A20F001003062306A20F09B
:10205000040002E0306A40F001003062E868E0B15C
:10206000FFF726FA83460DE0306A40F00400306244
:10207000F0E700BFFFF71CFAA0EB0B0141F288303C
:1020800081424BD897FAA7F0B0FA80F040F04000B8
:10209000B4EB501F08D1306812E01DE00010024080
:1020A000000042420070004097FAA7F0B0FA80F0BA
:1020B00040F04000B7EB501F01D1306A00E0706A79
:1020C00097FAA7F1B1FA81F101F01F0104FA01F2C8
:1020D0001042CFD02EE034E0FFF7EAF9834607E064
:1020E000FFF7E6F9A0EB0B0141F28830814215D8E9
:1020F00097FAA7F0B0FA80F040F04000B4EB501F20
:1021000001D130680CE097FAA7F0B0FA80F040F007
:102110004000B7EB501F02D1306A01E083E0706AE3
:1021200097FAA7F1B1FA81F101F01F0104FA01F267
:102130001042D5D1B9F1000F03D0F06920F08050E2
:10214000F061E86980B37168C1F38101022977D039
:102150004FF080714F00022809D091FAA1F0B0FA37
:1021600080F048F820A0FFF7A3F905465EE0894615
:1021700091FAA1F15046B1FA81F1C24648F8210026
:10218000FFF796F9804605E0FFF792F9A0EB08000B
:10219000022848D897FAA7F0B0FA80F040F0200063
:1021A000400902D0306801E056E0706A97FAA7F162
:1021B000B1FA81F101F01F0104FA01F10842E3D103
:1021C000D5E908100843716821F474110843706060
:1021D00099FAA9F0B0FA80F04AF82040FFF768F9C0
:1021E000054604E0FFF764F9401B02281BD897FA64
:1021F000A7F0B0FA80F040F02000400901D030682C
:1022000000E0706A97FAA7F1B1FA81F101F01F01BD
:1022100004FA01F10842E5D01EE000BFFFF748F9DB
:10222000401B022802D90320BDE8F88F97FAA7F0D7
:10223000B0FA80F040F02000400902D0306801E0A0
:102240000CE0706A97FAA7F1B1FA81F101F01F0171
:1022500004FA01F10842E1D10020E5E70120E3E7BB
:102260002DE9F041040005D00025A56294F85D0039
:1022700018B107E00120BDE8F08184F85C502046E9
:1022800000F04AF8022384F85D302068016821F0EC
:1022900040010160E0684FF4E066B04201D90021DE
:1022A00001E04FF48051B0F5706F02D0B04200D021
:1022B000A562276B012227B9B04201D9236300E050
:1022C0002263D4E901031843D4E9043633431843A5
:1022D000238B03F400731843E3691843236A1843FC
:1022E000A36A184323681860636B606AA669184381
:1022F0000427E36807EA1646334318430843216876
:1023000048602068C16921F40061C161256684F8D4
:102310005D200020AFE7000000B500680E4987B0DF
:10232000884217D10D48816941F4805181618069EB
:10233000694600F480500590E02000900220019052
:102340000020029003200390052004904FF090405D
:10235000FEF7E4FF07B000BD00300140001002406E
:102360004FF0E0210428086903D020F00400086140
:10237000704740F00400FAE7704710B5401EB0F116
:10238000807F01D3012010BD4FF0E02460610F2158
:10239000601701F0D1FB0020A06107202061002020
:1023A00010BD10B5FFF7E8FF10BD704770477047CC
:1023B00030B590F83C20012A3DD0012280F83C2025
:1023C000CA688B6822F440721A434B6822F4806218
:1023D0001A430B6822F400621A430B6922F48052FC
:1023E0001A434B6922F400521A438B6A22F480424A
:1023F0001A4322F400421A430B8B22F4702242EA61
:1024000003420E4D03680024AB4202D00C4DAB4298
:102410000CD18D8C22F4700242EA0552CD6922F073
:1024200080722A43096A22F000720A435A6480F8D3
:102430003C40002030BD022030BD0000002C014097
:102440000034014030B590F83C20012A1FD0012211
:1024500080F83C200268536894680E4DAA4202D06E
:102460000D4DAA4203D123F470054B682B4323F092
:1024700070050B6889682B4324F080042143536066
:1024800002689160002180F83C10084630BD0220AF
:1024900030BD0000002C01400034014010B50400A4
:1024A00003D094F83D0010B107E0012010BD0020DA
:1024B00084F83C00204600F00DF8022084F83D002E
:1024C000211D206801F096FC012084F83D000020C9
:1024D00010BD000008B53B4A01683B48914207D156
:1024E000816941F400618161806900F4006014E059
:1024F000B1F1804F0AD0354A914210D1C16941F003
:102500000201C161C06900F0020006E0C16941F04A
:102510000101C161C06900F00100009008BD2C4AB2
:10252000914207D1C16941F00401C161C06900F065
:102530000400F2E7274A91420ED1C16941F010012F
:10254000C161C069002200F0100000900121362016
:10255000FFF7FCF8362010E01F4A914211D1C16903
:1025600041F02001C161C069002200F0200000900C
:1025700011463720FFF7EAF83720BDE80840FFF79B
:10258000D9B8164A914207D1816941F4005181615D
:10259000806900F40050C0E7114A914207D1816977
:1025A00041F480318161806900F48030B5E70D4AE3
:1025B0009142B3D1816941F400318161806900F4B5
:1025C0000030AAE7002C0140001002400004004047
:1025D000000800400010004000140040003401409A
:1025E00000400140004401400168CA6842F0010215
:1025F000CA600068016841F0010101600020704775
:1026000070B5044690F83C00012817D0012584F8E5
:102610003C50022084F83D0022689068364E3040DD
:1026200020F47F4090600868502839D00DDC2028C5
:102630005BD005DC98B3102843D153E0022070BD75
:10264000302855D040283CD141E0602830D0702857
:102650000CD0B0F5805F03D0B0F5005F31D112E04F
:1026600020688168244A7032114016E0CB68D1E9B5
:102670000121206801F021FC21688868304040F089
:10268000770088601DE0CB68D1E90121206801F066
:1026900014FC2068816841F48041816011E01EE0F3
:1026A000CA684968206801F0A3FD5021206806E04F
:1026B000CA684968206801F0ACFD6021206801F01B
:1026C00006FC84F83D50002084F83C0070BDCA68C8
:1026D0004968206801F08CFD40212068EFE7002167
:1026E0002068ECE710212068E9E720212068E6E770
:1026F00030212068E3E7000088FFFEFF704770B5D7
:102700000446006801694FF00005C943890715D4E4
:10271000C168C943890711D4E91E016101202077EE
:10272000206880698007204602D0FFF7E7FF04E0B9
:1027300000F038F9204600F0E6F9257720680169B5
:10274000C943490717D4C168C943490713D46FF077
:1027500004010161022020772068806910F4407F25
:10276000204602D0FFF7CAFF04E000F01BF9204624
:1027700000F0C9F9257720680169C943090716D413
:10278000C168C943090712D46FF008010161042030
:1027900020772068C0698007204602D0FFF7AEFF8F
:1027A00004E000F0FFF8204600F0ADF9257720683E
:1027B0000169C943C90617D4C168C943C90613D4FE
:1027C0006FF010010161082020772068C06910F4C3
:1027D000407F204602D0FFF791FF04E000F0E2F8CE
:1027E000204600F090F9257720680169C943C907A0
:1027F00008D1C168C943C90704D1891E01612046B7
:1028000000F0AEF920680169C943090609D4C1681E
:10281000C943090605D46FF0800101612046FFF726
:10282000C5FD20680169C943C90509D4C168C94308
:10283000090605D46FF4807101612046FFF7B5FDEC
:1028400020680169C943490609D4C168C9434906DA
:1028500005D46FF040010161204600F00BFD2068B7
:102860000169C94389060BD4C168C943890607D4E5
:102870006FF0200101612046BDE87040FFF797BD71
:1028800070BD00002DE9F04100683B49002402259D
:1028900086B0884207D14FF4D4400090CDE901546E
:1028A000694636483EE001214FF09042B0F1804F3A
:1028B00021D0DFF8CCC010230326324FDFF8C880C8
:1028C000604526D10093CDE9015469461046CDE913
:1028D0000345FEF723FD0096CDE9015469463846CD
:1028E000CDE90345FEF71AFD40200090CDE90154E3
:1028F0006946404616E048F20E000090CDE90154CA
:10290000CDE9034169461046FEF708FD06B0BDE873
:10291000F0811E4A904208D1C0130090CDE90154C5
:102920001B486946CDE90345EEE71A4A90420AD1B1
:102930004FF460700090CDE901540420CDE90340CC
:1029400069464046E0E7144A904209D14FF4C0601E
:102950000090CDE90154CDE9034669460F48D3E71D
:102960000F4A9042D2D10093CDE90154CDE9034101
:1029700069463846C8E70000002C014000100048B6
:10298000000400400004004800080048000800401F
:10299000000C004800340140004001400014004891
:1029A00000440140704770B5044690F83C000D4665
:1029B00001280ED0012684F83C60022084F83D00F6
:1029C0000C2A45D007DC5AB1042A1BD0082A78D13A
:1029D0002CE0022070BD102A4ED0142A71D15DE087
:1029E000206801F07DFA2068816941F00801816169
:1029F0002068816921F004018161206881692A6968
:102A0000114311E0206801F0B9FA2068816941F4AE
:102A1000006181612068816921F4806181612068A1
:102A200081692A6941EA022181614AE0206801F056
:102A3000EDFA2068C16941F00801C1612068C169EF
:102A400021F00401C1612068C1692A69114311E0C4
:102A5000206801F023FB2068C16941F40061C16175
:102A60002068C16921F48061C1612068C1692A6957
:102A700041EA0221C16124E0206801F049FB20689D
:102A8000416D41F0080141652068416D21F004016C
:102A900041652068416D2A69114311E0206801F009
:102AA0006FFB2068416D41F4006141652068416D14
:102AB00021F4806141652068416D2A6941EA022163
:102AC000416584F83D60002084F83C0070BD10B57D
:102AD000040003D094F83D0010B107E0012010BDC0
:102AE000002084F83C00204600F00CF8022084F816
:102AF0003D00211D206801F07DF9012084F83D0092
:102B0000002010BD7047704710B5044600680122D0
:102B100001F0C8F90D48216881420BD00C48814270
:102B200008D00C48814205D00B48814202D00B48A6
:102B3000814203D1486C40F4004048642068016839
:102B400041F001010160002010BD0000002C014097
:102B50000034014000400140004401400048014071
:102B60002DE9F05F82460168FE480126DFF8F8B3E0
:102B70000025FE4C814276D12069401C20616069AD
:102B8000401C6061A169491CA161606A401C6062CF
:102B9000B1F57A7F0CD1A561E169491CE1613C295D
:102BA00006D1216A491CC4E907513C2900D125629C
:102BB000A0F598514FF00909883908D16562607A0B
:102BC000401C40B260720A2801D184F8099001F0DB
:102BD0001DF8E1799BF80080E5484FF0040E41456F
:102BE0006AD000F5EC622169D2F800C000F5F1630B
:102BF00000F114078C4504D1E6710670197839701C
:102C00005AE0D2F804C08C4505D10221E17146702A
:102C10001979797050E0D2F808C08C4505D10321AC
:102C2000E1718670197AB97046E0D2F80CC08C4513
:102C300005D184F807E0C670197BF9703CE0D2F842
:102C400010C08C4505D10521E1710671197C3971DF
:102C500032E0D2F814C08C4506D10621E1714671EC
:102C6000197D797128E068E2D2F818C08C4505D149
:102C70000721E1718671197EB9711DE0D2F81CC07F
:102C80008C4505D10821E171C671197FF97113E0F6
:102C9000D2F820C08C4506D184F80790067293F8CC
:102CA0002010397208E0526A8A4205D10A21E17186
:102CB000467293F824107972AD49A8F103080A31DD
:102CC0004FF4FD72B8F1090F27D2DFE808F00527AD
:102CD0005285C2FDFCFBFB006269A2F5A067DC3FE8
:102CE0001BD16561027812B10A78521C0A704278D1
:102CF00012B14A78521C4A70827812B18A78521CFA
:102D00008A700A78042A00D105704A78042A00D112
:102D100045708A78042AE3D18570F6E16269A2F5EC
:102D2000A0674E3FF9D16561027812B10A78521C52
:102D30000A70427812B14A78521C4A70827812B1F5
:102D40008A78521C8A70C27812B1CA78521CCA7032
:102D50000A78042A00D105704A78042A00D1457007
:102D60008A78042A00D18570CA78042AD5D1C57022
:102D7000CBE16269B2F5986FCFD16561027812B18B
:102D80000A78521C0A70427812B14A78521C4A7072
:102D9000827812B18A78521C8A70C27812B1CA78CD
:102DA000521CCA70027912B10A79521C0A710A784F
:102DB000042A00D105704A78042A00D145708A7827
:102DC000042A00D18570CA78042A00D1C5700A7916
:102DD000042AA2D1057198E16269A2F58067323FA9
:102DE0009BD16561027812B10A78521C0A70427850
:102DF00012B14A78521C4A70827812B18A78521CF9
:102E00008A70C27812B1CA78521CCA70027912B1A3
:102E10000A79521C0A71427912B14A79521C4A71DC
:102E20000A78042A00D105704A78042A00D1457036
:102E30008A78042A00D18570CA78042A00D1C57026
:102E40000A79042A00D105714A79042A90D1457182
:102E50005BE16269B2F5697F8AD16561027812B17E
:102E60000A78521C0A70427812B14A78521C4A7091
:102E7000827812B18A78521C8A70C27812B1CA78EC
:102E8000521CCA70027912B10A79521C0A71427935
:102E900012B14A79521C4A71827912B18A79521C54
:102EA0008A710A78042A00D105704A78042A00D170
:102EB00045708A78042A00D18570CA78042A00D126
:102EC000C57002E014E165E00CE00A79042A00D143
:102ED00005714A79042A00D145718A79042AB7D14B
:102EE000857112E16269A2F54077163FB0D1656144
:102EF000027812B10A78521C0A70427812B14A78EC
:102F0000521C4A70827812B18A78521C8A70C27838
:102F100012B1CA78521CCA70027912B10A79521CD5
:102F20000A71427912B14A79521C4A71827912B1FE
:102F30008A79521C8A71C27912B1CA79521CCA713B
:102F40000A78042A00D105704A78042A00D1457015
:102F50008A78042A00D18570CA78042A00D1C57005
:102F60000A7907E000140040060000200800002055
:102F70007C000020042A00D105714A79042A00D17E
:102F800045718A79042A00D18571CA79042A00D151
:102F9000C571BAE06269B2F5227F51D165610278EC
:102FA00012B10A78521C0A70427812B14A78521C47
:102FB0004A70827812B18A78521C8A70C27812B133
:102FC000CA78521CCA70027912B10A79521C0A716D
:102FD000427912B14A79521C4A71827912B18A79C6
:102FE000521C8A71C27912B1CA79521CCA71027A12
:102FF00012B10A7A521C0A720A78042A00D10570AA
:103000004A78042A00D145708A78042A00D1857054
:10301000CA78042A00D1C5700A79042A00D1057142
:103020004A79042A00D145718A79042A00D1857130
:10303000CA79042A00D1C5710A7A042A65D10572B9
:1030400063E06561027812B10A78521C0A70427816
:1030500012B14A78521C4A70827812B18A78521C96
:103060008A70C27812B1CA78521CCA70027912B141
:103070000A79521C0A71427912B14A79521C4A717A
:10308000827912B18A79521C8A71C27912B1CA79D5
:10309000521CCA71027A12B10A7A521C0A72427A1E
:1030A00012B14A7A521C4A720A78042A00D1057079
:1030B0004A78042A20D08A78042A00D18570CA78F8
:1030C000042A1BD00A79042A00D105714A79042AFE
:1030D00016D08A79042A00D18571CA79042A11D0C0
:1030E0000A7A042A00D105724A7A042A0CD00CE02C
:1030F00067699742A5D008E04570DCE7C570E1E755
:103100004571E6E7C571EBE745722069A0F56852A5
:10311000983A23D12561002065610D54401C0A288E
:10312000FBDB6570B8F1080F18D2DFE808F0040780
:10313000090B0D0F12148BF800E00FE005200BE0D7
:10314000062009E0072007E0082005E08BF8009042
:1031500004E00A2000E00B208BF800004148DAF878
:103160000010814279D101F067F89BF800005F46BA
:103170000C2842D2DFE800F041062D32454A4F5478
:10318000595E6363E0686421B0FBF1F201FB120059
:1031900018BB2078344F012801D078B12DE0334E90
:1031A000307800F071F8012000F065F83078396867
:1031B000C0F16400C0B2486325701EE0002000F03A
:1031C00063F8002000F057F83968642048632670DF
:1031D00013E0FDF72FF9032038700EE0607838B95E
:1031E000032001F0BDFB2048C038FFF7FDF92DE0BA
:1031F000FDF75AF9387800F03FFDE068642828D0E0
:1032000028E060780028F3D104201CE060780028D2
:10321000EED1052017E060780028E9D1062012E001
:1032200060780028E4D107200DE060780028DFD125
:10323000082008E060780028DAD1092003E06078EF
:103240000028D5D10A2001F08BFB25616670CFE7FD
:1032500003E0E560E068401CE060BDE8F05F044822
:10326000FFF7C2B900100040F40300200400002062
:10327000F40200207047012803D0002803D101F098
:1032800031BB01F09BB9704716490A68D0630A68E0
:10329000106401F140021368186458630B685863A6
:1032A00013689863096888631168C86302F1400174
:1032B0000A6850630A6890630A68D0630968086402
:1032C0000849C0310968086407490A6890630A68B8
:1032D000D06309680864044940310A68506309688A
:1032E00088637047F401002074030020F0B589B0B2
:1032F0000C460F49DDE9106591F800E00021DDE999
:103300000EC705910691CDE9003C0791089113463F
:10331000BEF1000F02972246014601D0012000E0D5
:103320000020CDE9036501F0ABF909B0F0BD000064
:103330006000002030B5194889B04FF0A04100244A
:10334000C0E900140461C46101254462C0E90B5462
:1033500018210562C0E9021404214463C0E9051480
:103360008463FDF791FD00B1FEE706A90B480694C2
:10337000FDF79CF900B1FEE70620CDE90005072026
:10338000CDE902040494694604480594FDF718FA4F
:10339000002800D0FEE709B030BD00009C000020EE
:1033A00030B5164887B014490024C0E90014046100
:1033B000C46101254462C0E90B5418210562C0E9CB
:1033C000021404214463C0E905148463FDF75CFD25
:1033D00000B1FEE70520CDE900050720CDE9020494
:1033E0000494694605480594FDF7EAF9002800D0E1
:1033F000FEE707B030BD000000050050F0000020DF
:103400002DE9F0475E4886B0416941F40011416101
:10341000416901F400110591416941F400214161C4
:10342000416901F400210591416941F48001416144
:10343000416901F480010591416941F40031416124
:10344000416901F400310591416941F480214161F4
:10345000416901F480210591416941F48011416184
:103460004069DFF8208100F48010059000220821D7
:103470004046FEF717F8DFF810914FF4805700220E
:1034800039464846FEF70EF8DFF800A101220F2169
:103490005046FEF707F80022F0215046FEF702F8EA
:1034A000362000903A480024CDE9010469464046A0
:1034B000FDF734FF082000900126CDE9016469463C
:1034C00040460394FDF72AFF49F2C1500325CDE998
:1034D0000005694602944046FDF720FF42F63E4053
:1034E000CDE90005694602944846FDF717FF5420D0
:1034F000CDE90005694602942648FDF70FFF2648EE
:103500000096CDE901044FF0904869464046FDF72A
:1035100005FF47F62470CDE90005694602941F486F
:10352000FDF7FCFE4FF4FE40CDE90005694602942C
:103530005046FDF7F3FE4FF4E060CDE90005694623
:1035400002944046FDF7EAFE0097CDE90164694622
:1035500048460394FDF7E2FEFF200090CDE90164A8
:10356000694650460394FDF7D9FE00220221062049
:10357000FEF7ECF80620FEF7DDF806B0BDE8F087B0
:10358000001002400010004800080048000C0048ED
:103590000000121000140048000011100004004840
:1035A000114810B50F490160104941600021012206
:1035B000C0E90212016141618161C1610162FDF7EF
:1035C000D1FF00B1FEE700210748FDF777FF00B10A
:1035D000FEE700210448FDF79CFF002800D0FEE72D
:1035E00010BD000000540040440100200E090020DE
:1035F000104810B50E4901604FF4827141600021FE
:103600004FF44072C0E902124FF400720161C0E948
:1036100005120822C0E9072107234162C0E90A1305
:10362000C0E90C12FEF71CFE002800D0FEE710BD1A
:10363000003001409001002010B52A489AB0284976
:10364000016048210024C0E901146321C0E903148A
:1036500044618461FEF722FF00B1FEE74FF4805021
:10366000159015A91F48FEF7CBFF00B1FEE71D48D6
:10367000FFF72DFA00B1FEE7129412A9194814942D
:10368000FEF7E0FE00B1FEE76020CDE90004029401
:103690000394049405940022694612480694FFF7A7
:1036A00082F900B1FEE7042269460E48FFF77BF974
:1036B00000B1FEE70794089409944FF400500A946F
:1036C000CDE90B400D9407A906481194FEF770FE52
:1036D00000B1FEE70348FFF7D5F81AB010BD0000AF
:1036E00000400140B403002010B51E4892B01C49B0
:1036F000016048210024C0E901146321C0E90314DA
:1037000044618461FEF7CAFE00B1FEE71548FFF789
:10371000DEF900B1FEE76020CDE90B040D940E94B4
:103720000F94109400220BA90E481194FFF73BF957
:1037300000B1FEE700944FF40050CDE9044001943D
:10374000029403940694694606480A94FEF730FEF4
:1037500000B1FEE70348FFF795F812B010BD000076
:1037600000440140F403002010B533489AB03149B9
:10377000016048210024C0E901146321C0E9031459
:1037800044618461FEF78AFE00B1FEE74FF4805089
:10379000159015A92848FEF733FF00B1FEE726482B
:1037A000FFF795F900B1FEE71294139412A922488D
:1037B0001494FEF747FE00B1FEE76020CDE9000457
:1037C0000294039404940594002269461A480694CE
:1037D000FFF7E9F800B1FEE7042269461648FFF753
:1037E000E2F800B1FEE7082269461348FFF7DBF86C
:1037F00000B1FEE70C2269460F48FFF7D4F800B18C
:10380000FEE70794089409944FF400500A94CDE918
:103810000B400003CDE90E400D94109407A9064813
:103820001194FEF7C5FD00B1FEE70348FFF72AF843
:103830001AB010BD002C0140F401002010B526483C
:103840008EB04FF08041016048210024C0E901148E
:103850006321C0E903148461FEF720FE00B1FEE796
:103860004FF480500A900AA91B48FEF7C9FE00B128
:10387000FEE71948FFF72BF900B1FEE7079407A907
:1038800015480994FEF7DEFD00B1FEE76020CDE9A2
:1038900000040294002269460F480494FFF783F85D
:1038A00000B1FEE7042269460B48FFF77CF800B13F
:1038B000FEE7082269460848FFF775F800B1FEE701
:1038C0000C2269460448FFF76EF800B1FEE7024893
:1038D000FEF7D8FF0EB010BD3402002010B5274807
:1038E0008EB02549016048210024C0E901146321FC
:1038F000C0E903148461FEF7D1FD00B1FEE74FF487
:1039000080500A900AA91D48FEF77AFE00B1FEE732
:103910001A48FFF7DCF800B1FEE7079407A917483B
:103920000994FEF78FFD00B1FEE76020CDE90004A9
:1039300002940022694611480494FFF734F800B15C
:10394000FEE7042269460D48FFF72DF800B1FEE7B7
:10395000082269460948FFF726F800B1FEE70C2265
:1039600069460648FFF71FF800B1FEE70348FEF777
:1039700089FF0EB010BD000000040040740200205A
:1039800010B51C488EB01A49016048210024C0E9D6
:1039900001146321C0E903148461FEF77FFD00B1C7
:1039A000FEE74FF480500A900AA91248FEF728FE5D
:1039B00000B1FEE70F48FFF78AF800B1FEE7079471
:1039C00007A90C480994FEF73DFD00B1FEE7602011
:1039D000CDE9000402940C22694606480494FEF7DF
:1039E000E2FF00B1FEE70348FEF74CFF0EB010BD4A
:1039F00000080040B40200203EB50D480B490024E9
:103A000001604821C0E9011441F287318461C1603D
:103A1000FEF744FD00B1FEE70094694604480294B5
:103A2000FEF710FD002800D0FEE73EBD001000406C
:103A3000F40200203EB50D480B49002401604821E6
:103A4000C0E9011440F2E7318461C160FEF726FD50
:103A500000B1FEE70094694604480294FEF7F2FCC8
:103A6000002800D0FEE73EBD0014004034030020D3
:103A700010B530489AB02E49016048210024C0E9B1
:103A800001146321C0E9031444618461FEF706FD5B
:103A900000B1FEE74FF48050159015A92548FEF7B8
:103AA000AFFD00B1FEE72348FFF711F800B1FEE7D4
:103AB0001294139412A91F481494FEF7C3FC00B18A
:103AC000FEE76020CDE90004029403940494059479
:103AD0000422694617480694FEF765FF00B1FEE729
:103AE000082269461348FEF75EFF00B1FEE70C228C
:103AF00069461048FEF757FF00B1FEE707940894A7
:103B000009944FF400500A94CDE90B400003CDE92D
:103B10000E400D94109407A906481194FEF748FC36
:103B200000B1FEE70348FEF7ADFE1AB010BD00007D
:103B300000340140740300200907090E002806DA4A
:103B400000F00F0000F1E02080F8141D704700F134
:103B5000E02080F80014704710B52B4C0A2851D291
:103B6000DFE800F00507181A21232A2C383A002232
:103B700000E0012208212046FDF794FC00220421E8
:103B80002046FDF78FFC002202212046FDF78AFC2B
:103B9000002231E0002200E0012208212046FDF74A
:103BA00081FC0122EBE7002200E0012208212046EF
:103BB000FDF778FC002207E0002200E00122082146
:103BC0002046FDF76FFC012204212046FDF76AFC28
:103BD0000122D9E7002200E0012208212046FDF75A
:103BE00061FC002204212046FDF75CFC002202213A
:103BF0002046FDF757FC01222046BDE81040012178
:103C0000FDF750BC10BD0000000C004870B5194C09
:103C10000A25207A98B1012816D0022824D003283A
:103C200021D10420FCF7E2FC206AB0FBF5F0B0FBE8
:103C3000F5F105FB1100FFF78FFF002012E00120D6
:103C4000FCF7D4FCE06905E00220FCF7CFFCE0695A
:103C5000B0FBF5F0B0FBF5F105FB1100FFF77CFFC1
:103C6000207A401C207270BD0320FCF7BFFC206A44
:103C7000F0E700000800002010B51248134A03784E
:103C8000114802F14001126800780968DB1EC0F19A
:103C90006400092B07D2DFE803F00507090B0D0FBD
:103CA00011131300D06310BD106410BD086410BD63
:103CB000486310BD506310BD886310BD906310BD94
:103CC000C86310BD0600002004000020F40100209D
:103CD00010B5FDF7C9FCBDE81040FEF762BB00005F
:103CE00030B59FB003200F904FF480300024CDE911
:103CF000100402250121CDE9165013914FF4E01074
:103D00001021189014910FA8FDF7D4FF00B1FEE721
:103D10000F20CDE919054FF48060CDE91B40022149
:103D200019A81D94FDF7CAFE00B1FEE710480090E7
:103D30004FF480700990400107940A900E940C94FF
:103D40000D946846FDF7AEFD00B1FEE7FDF77AFF82
:103D50004FF47A71B0FBF1F0FEF70FFB0420FEF791
:103D6000FFFA00221146501EFDF7F0FC1FB030BDD7
:103D7000A03102001448016841F470010160134849
:103D8000016841F0010101604168114A1140416040
:103D90000168104A11400160016821F4802101602E
:103DA000416821F4FE014160C16A21F00F01C16246
:103DB000016B094A11400163002181600249C0037F
:103DC000803908607047000088ED00E00010024074
:103DD0000CC07FF8FFFFF6FECCFC00FF0148FEF7A9
:103DE0008EBC0000F40200200148FEF788BC0000F1
:103DF000340300202DE9F0430268234B234D244E69
:103E0000244C4FF08049984207D0484505D0A8423D
:103E100003D0B04201D0A04203D122F070074A681B
:103E20003A431D4FDFF874C0DFF8748098420DD01C
:103E300048450BD0A84209D0B04207D0A04205D0D7
:103E4000B84203D0604501D0404503D122F440750B
:103E5000CA682A434D6922F080022A4302608A68B8
:103E6000C2620A688262984207D0A04205D0B84276
:103E700003D0604501D0404501D1096901630121AA
:103E80004161BDE8F0830000002C014000040040C7
:103E9000000800400034014000400140004401405F
:103EA0000048014010B50123046A8B409C43046222
:103EB000036A8A401343036210BD10B5846842EA66
:103EC000032224F47F440A432243826010BD8268A7
:103ED00022F070020A4342F007018160704700003F
:103EE0002DE9F043026A22F001020262056A43688A
:103EF00082691C4C25F0020522400C6822F0030266
:103F000014438A68194E2A43174D194FDFF864C0CD
:103F1000DFF86490A84207D0B04205D0B84203D081
:103F2000604501D0484506D122F00808CA6842EA37
:103F3000080222F00402A84207D0B04205D0B842DD
:103F400003D0604501D0484505D14D6923F4407345
:103F50001D438B692B43436084614968416302625E
:103F6000BDE8F0838FFFFEFF002C014000340140CC
:103F7000004001400044014000480140F0B5026AA1
:103F800022F010020262056A42688369194C1B4ED6
:103F900023400C6823F4407343EA042425F02003F3
:103FA0008D6843EA0513144DA84201D0B04206D1F2
:103FB000CF6823F0800343EA071323F04003A842AD
:103FC0000AD0B04208D00E4DA84205D00D4DA842EF
:103FD00002D00D4DA84207D14D6922F4406242EA59
:103FE00085028D6942EA8502426084614968816385
:103FF0000362F0BDFF8FFFFE002C01400034014042
:10400000004001400044014000480140F0B5026A10
:1040100022F480720262056A4368C269194C1B4E21
:1040200022400C6822F00302144325F400728D68CC
:1040300042EA0522144DA84201D0B04206D1CF6811
:1040400022F4006242EA072222F48062A8420AD0E7
:10405000B04208D00E4DA84205D00E4DA84202D065
:104060000D4DA84207D14D6923F4405343EA05138F
:104070008D6943EA05134360C4614968C163026204
:10408000F0BD00008FFFFEFF002C01400034014016
:1040900000400140004401400048014030B5026A40
:1040A00022F480520262046A4268C369124D24F409
:1040B00000542B400D6823F4407343EA05238D68B8
:1040C00044EA05340D4DA8420BD00D4DA84208D04E
:1040D0000C4DA84205D00C4DA84202D00B4DA84271
:1040E00004D14D6922F4804242EA85124260C361E4
:1040F00049680164046230BDFF8FFFFE002C01405F
:1041000000340140004001400044014000480140AB
:1041100030B5026A22F480320262046A4268436D5A
:10412000114D2B400D681D4324F400330C8943EAE4
:1041300004430E4CA0420BD00D4CA04208D00D4CB5
:10414000A04205D00C4CA04202D00C4CA04204D19D
:104150004C6922F4803242EA042242604565496893
:104160008165036230BD00008FFFFEFF002C01401F
:10417000003401400040014000440140004801403B
:1041800030B5026A22F480120262046A4268436D0A
:10419000114D24F400142B400D6843EA05230D89CA
:1041A00044EA05540D4DA8420BD00D4DA84208D04D
:1041B0000C4DA84205D00C4DA84202D00B4DA84290
:1041C00004D14D6922F4802242EA8522426043658F
:1041D0004968C165046230BDFF8FFFFE002C0140BD
:1041E00000340140004001400044014000480140CB
:1041F00010B5036A046A24F001040462846924F09F
:10420000F00444EA021423F00A020A4384610262C1
:1042100010BD10B5036A23F0100303628369046ABA
:1042200023F4704343EA023224F0A00343EA01116D
:104230008261016210BD000030B51648174990F93F
:104240000940154801F5807201F5A07300780968EE
:1042500012681B680A2C07D2DFE804F00507090B77
:104260000D1113151719486330BD886330BDC8633D
:1042700030BD086430BD094940310968F9E79063F1
:1042800030BDD06330BD106430BD586330BD98631D
:1042900030BD00000800002004000020740200204F
:1042A0000FB4084B10B504A902AA039800F01CF83B
:1042B000044602A9002000F0C1F8204610BC5DF8B9
:1042C00014FB00003D44000802E008C8121F08C1AA
:1042D000002AFAD170477047002001E001C1121F87
:1042E000002AFBD1704700002DE9FF4F89B09B46A3
:1042F0000446002506E025280BD05A460B99904726
:10430000641C6D1C20780028F5D10DB02846BDE84E
:10431000F08F0027B8460122474900E0074314F810
:10432000013F203B02FA03F00842F7D120782E2803
:1043300019D114F8010F47F004072A280ED06FF0A6
:104340002F022078A0F1300109290CD808EB880150
:1043500002EB410100EB0108641CF2E70A98641CBF
:1043600050F8048B0A9020780028CED0642808D01A
:10437000692806D075281ED05A460B9990476D1CA7
:1043800058E00A994FF00A0901C90A91002802DA97
:1043900040422D2102E0390504D52B218DF8201053
:1043A000012103E0F90704D02021F7E78A4608AE8F
:1043B0000DE00021FAE70A994FF00A0901C90A91B4
:1043C000F7E74946FBF715FF303106F8011D0028D5
:1043D000F7D1ADEB060000F12009780701D44FF0CA
:1043E0000108C84502DDA8EB090000E00020804676
:1043F000002706E008A85A46C05D0B9990476D1C3F
:104400007F1C5745F6DB04E030205A460B99904755
:104410006D1CB8F10001A8F10108F5DC05E016F803
:10442000010B5A460B9990476D1CB9F10001A9F197
:104430000109F4DC641C65E7092801000A68531CC3
:104440000B6010707047000030B54B4C85B00D46C6
:10445000012903D9A17841F00801A17000F14003BE
:10446000024665714021002000F0FEFA607828B114
:10447000012D03D1A07840F00400A07000F0AAF84C
:10448000032003900120019021783C480029E28814
:104490000188638941EA0201228942EA030241EA72
:1044A0000201428841EA0201828841EA020101D008
:1044B000C08808E0C2881143028911434289114330
:1044C0008289C0891143014300916946E068FCF785
:1044D00025FF3220FCF706FF0022E188E068FCF7A8
:1044E000E1FF00226189E068FCF7DCFF2189FF29F8
:1044F00003D00022E068FCF7D5FFA078C10615D4F0
:10450000032000F0C1FA0520FCF7ECFE032000F0C8
:10451000BBFA0520FCF7E6FE032000F0B5FA012007
:10452000FCF7E0FE022000F0AFFA13E040F02000BC
:1045300000F02FF80520FCF7D5FEA07840F0200011
:1045400000F027F80120FCF7CDFEA07840F0200015
:1045500000F01FF8A07840F0200000F01AF80420C6
:10456000E07000F02BF800F00BF80220207106201C
:1045700000F00FF805B030BD600000202C080020CE
:1045800010B5012000F005F8BDE810400220FCF74E
:10459000A9BE002100F032BA70B50D4600F0070048
:1045A000402141EAC000FFF7F4FF00240121285D0B
:1045B00000F024FA641C082CF8DB70BD0449C878AC
:1045C00040F00400C87040F00800FFF7E2BF0000B0
:1045D00060000020234808B5C1682348B1F1904F1E
:1045E0000BD0224A914210D1416941F480214161AE
:1045F000406900F48020009008BD416941F4003119
:104600004161406900F40030F5E7194A914207D151
:10461000416941F400214161406900F40020EAE76A
:10462000144A914207D1416941F4801141614069C6
:1046300000F48010DFE7104A914207D1416941F44C
:1046400000114161406900F40010D4E70B4A914227
:10465000D2D1416941F480014161406900F4800098
:10466000C9E700006000002000100240000400487C
:1046700000080048000C00480010004800140048E2
:104680002DE9F05F0AAC94E8E05F0F4CE2802381F3
:104690006581E1600D490E804F80A1F80480A1F88A
:1046A0000690A1F808A0A1F80AB0A1F80CC0A1F8E2
:1046B0000EE008B1002000E01020A070BDE8F05F1F
:1046C00002211020FFF7C0BE600000202C0800204F
:1046D0001FB5FCF7D1FFFFF703FBFEF791FEFEF7D6
:1046E0005FFFFEF785FF6C486A49022201600821DE
:1046F000C0E901120021C0E9031281610162FDF7E6
:1047000057F800B1FEE7FFF777F9FFF72DF8FFF74D
:1047100095F8FFF7E3F8FFF7ABF9FFF731F9FEF78C
:104720008BFFFEF707FEFEF73BFEFEF7DDFFFFF710
:1047300081F9012059498303420308700103C00233
:104740008DE80F0043108210C1105548FEF7CEFDD2
:1047500004211420FFF778FE5249A1F12D04A0781E
:10476000FFF71AFF04F13501E078FFF715FF04F1B8
:104770003D012079FFF710FF04F145016079FFF753
:104780000BFF04F14D01A079FFF706FF00F0AAF836
:104790000021032000F054F943A000F0AFF80221FB
:1047A000032000F04DF944A000F0A8F803210220F6
:1047B00000F046F944A000F0A1F800214748FEF7B8
:1047C000A3F9464800214038FEF79EF904214348EA
:1047D000FEF79AF9414804214038FEF795F908217F
:1047E0003E48FEF791F93D4808214038FEF78CF924
:1047F0003A480C214038FEF787F90C213748FEF77C
:1048000083F9364800214030FEF77EF93348042111
:104810004030FEF779F9314808214030FEF774F94D
:104820002E480C214030FEF76FF92C480C218030C7
:10483000FEF76AF918480421C038FEF765F91648F2
:104840000821C038FEF760F913480C21C038FEF784
:104850005BF9114800218038FEF756F90E48042113
:104860008038FEF751F90C4800214038FEF74CF92A
:10487000094964204039096848631848C030FDF789
:10488000B3FE1748FCF76EFC15485430FCF76AFC81
:10489000FEE70000005C0040340400200600002019
:1048A000000C0048350000202A2A44656174682005
:1048B000526163652A2A0000416C6920204D6F68AF
:1048C00065626946617200004D616A6964204168F1
:1048D0006D616450616E6168000000003402002068
:1048E0009C0000200449C87820F00400C87040F003
:1048F0000800FFF74EBE00006000002070B50028E1
:104900000FD00446FBF76EFC0546002606E000BF0C
:1049100014F8010B012100F071F8761C6D1EF7D21E
:10492000304670BD10B50D4C00226189E068FCF77F
:10493000B9FD0120FCF7D6FC01226189E068FCF793
:10494000B1FD0120FCF7CEFC00226189E068FCF794
:10495000A9FDBDE810400120FCF7C4BC60000020A8
:104960002DE9F0470546234F00200146A7F1280412
:1049700044F8201047F82010401CC0B20A28F7D392
:104980001D48C068FBF726FC002643F698284FF028
:104990000C0913E0FBF714FC90FBF8F208FB120083
:1049A000401C44F82600FBF70BFC90FBF9F209FBD6
:1049B0001200001D47F82600761CF6B2AE42E9D37D
:1049C00000206D1E12E000210CE000BF04EB81030B
:1049D00054F821205E68B24202D944F821605A603E
:1049E000491CC9B2A942F1DB401CC0B2A842EADBB3
:1049F000BDE8F087040800200800002070B50F4CC7
:104A000005460A46E188E068FCF74CFD2189FF294C
:104A100003D00022E068FCF745FDA078C00604D56D
:104A20002846BDE8704000F049B8280900F02CF88D
:104A30002846BDE8704000F027B800006000002064
:104A4000042900D30321074A5279914201D3521E0F
:104A5000D1B2044A1032515C0844C0B240F0800028
:104A6000FFF797BD6000002010B5034C2070617007
:104A7000A270E37010BD00007000002010B501218D
:104A8000FFF7BCFF012010BD2DE9F041094E0A4F90
:104A90000546002425FA04F000F0010236F814104F
:104AA000F868FCF7FFFC641C042CF3DBBDE8F04164
:104AB000FFF738BF2C080020600000202DE9F041EE
:104AC000094E0A4F0546002425FA04F000F00102C1
:104AD00036F81410F868FCF7E5FC641C082CF3DBCE
:104AE000BDE8F041FFF71EBF2C0800206000002049
:104AF00002030405060708090A0B0C0D0E0F10101F
:104B00000102030405060708090A0B0C0D0E0F101D
:104B1000000000000000000001020304060708096D
:104B2000404B0008000000207C000000C842000844
:104B3000BC4B00087C000020C40B0000D8420008D9
:104B40000000000000320000000001020304050024
:104B500000FF000000000000000000000000000056
:104B60000000000000000000000000000000000045
:104B700000000000000702141F131F0C0C1C080586
:104B80001F191F0606010306040C08181010180C44
:104B90000406020301000A1F1F1F0E04000000008C
:104BA0000100000000000000000000000000000004
:0C4BB0000000000000127A00000000006D
:040000050800018965
:00000001FF
